{
  "contractName": "MyLunch",
  "abi": [
    {
      "inputs": [
        {
          "internalType": "string[]",
          "name": "initialFoodNameList",
          "type": "string[]"
        }
      ],
      "payable": false,
      "stateMutability": "nonpayable",
      "type": "constructor"
    },
    {
      "constant": true,
      "inputs": [
        {
          "internalType": "uint256",
          "name": "",
          "type": "uint256"
        }
      ],
      "name": "foodList",
      "outputs": [
        {
          "internalType": "string",
          "name": "",
          "type": "string"
        }
      ],
      "payable": false,
      "stateMutability": "view",
      "type": "function"
    },
    {
      "constant": true,
      "inputs": [],
      "name": "getFoodCount",
      "outputs": [
        {
          "internalType": "uint256",
          "name": "",
          "type": "uint256"
        }
      ],
      "payable": false,
      "stateMutability": "view",
      "type": "function"
    },
    {
      "constant": true,
      "inputs": [
        {
          "internalType": "string",
          "name": "foodName",
          "type": "string"
        }
      ],
      "name": "getVotedFoodByName",
      "outputs": [
        {
          "internalType": "uint256",
          "name": "",
          "type": "uint256"
        }
      ],
      "payable": false,
      "stateMutability": "view",
      "type": "function"
    },
    {
      "constant": false,
      "inputs": [
        {
          "internalType": "string",
          "name": "foodName",
          "type": "string"
        }
      ],
      "name": "voteFoodByName",
      "outputs": [],
      "payable": false,
      "stateMutability": "nonpayable",
      "type": "function"
    },
    {
      "constant": false,
      "inputs": [
        {
          "internalType": "string",
          "name": "foodName",
          "type": "string"
        }
      ],
      "name": "addFood",
      "outputs": [],
      "payable": false,
      "stateMutability": "nonpayable",
      "type": "function"
    }
  ],
  "bytecode": "0x60806040523480156200001157600080fd5b5060405162000bb538038062000bb583398181016040526200003791908101906200032f565b80600090805190602001906200004f929190620000c3565b5060008090505b8151811015620000bb57600160028383815181106200007157fe5b6020026020010151604051620000889190620003ab565b908152602001604051809103902060006101000a81548160ff021916908315150217905550808060010191505062000056565b505062000494565b82805482825590600052602060002090810192821562000117579160200282015b8281111562000116578251829080519060200190620001059291906200012a565b5091602001919060010190620000e4565b5b509050620001269190620001b1565b5090565b828054600181600116156101000203166002900490600052602060002090601f016020900481019282601f106200016d57805160ff19168380011785556200019e565b828001600101855582156200019e579182015b828111156200019d57825182559160200191906001019062000180565b5b509050620001ad9190620001e2565b5090565b620001df91905b80821115620001db5760008181620001d191906200020a565b50600101620001b8565b5090565b90565b6200020791905b8082111562000203576000816000905550600101620001e9565b5090565b90565b50805460018160011615610100020316600290046000825580601f1062000232575062000253565b601f016020900490600052602060002090810190620002529190620001e2565b5b50565b600082601f8301126200026857600080fd5b81516200027f6200027982620003f2565b620003c4565b9150818183526020840193506020810190508360005b83811015620002c95781518601620002ae8882620002d3565b84526020840193506020830192505060018101905062000295565b5050505092915050565b600082601f830112620002e557600080fd5b8151620002fc620002f6826200041b565b620003c4565b915080825260208301602083018583830111156200031957600080fd5b620003268382846200045e565b50505092915050565b6000602082840312156200034257600080fd5b600082015167ffffffffffffffff8111156200035d57600080fd5b6200036b8482850162000256565b91505092915050565b6000620003818262000448565b6200038d818562000453565b93506200039f8185602086016200045e565b80840191505092915050565b6000620003b9828462000374565b915081905092915050565b6000604051905081810181811067ffffffffffffffff82111715620003e857600080fd5b8060405250919050565b600067ffffffffffffffff8211156200040a57600080fd5b602082029050602081019050919050565b600067ffffffffffffffff8211156200043357600080fd5b601f19601f8301169050602081019050919050565b600081519050919050565b600081905092915050565b60005b838110156200047e57808201518184015260208101905062000461565b838111156200048e576000848401525b50505050565b61071180620004a46000396000f3fe608060405234801561001057600080fd5b50600436106100575760003560e01c806303e5b6281461005c5780631e47dcb01461008c578063477ffbcd146100a8578063a1408621146100d8578063ec186f3c146100f6575b600080fd5b61007660048036036100719190810190610479565b610112565b6040516100839190610572565b60405180910390f35b6100a660048036036100a19190810190610438565b6101cb565b005b6100c260048036036100bd9190810190610438565b610211565b6040516100cf91906105b4565b60405180910390f35b6100e0610239565b6040516100ed91906105b4565b60405180910390f35b610110600480360361010b9190810190610438565b610245565b005b6000818154811061011f57fe5b906000526020600020016000915090508054600181600116156101000203166002900480601f0160208091040260200160405190810160405280929190818152602001828054600181600116156101000203166002900480156101c35780601f10610198576101008083540402835291602001916101c3565b820191906000526020600020905b8154815290600101906020018083116101a657829003601f168201915b505050505081565b600180826040516101dc919061055b565b908152602001604051809103902054016001826040516101fc919061055b565b90815260200160405180910390208190555050565b6000600182604051610223919061055b565b9081526020016040518091039020549050919050565b60008080549050905090565b600281604051610255919061055b565b908152602001604051809103902060009054906101000a900460ff16156102b1576040517f08c379a00000000000000000000000000000000000000000000000000000000081526004016102a890610594565b60405180910390fd5b60008190806001815401808255809150509060018203906000526020600020016000909192909190915090805190602001906102ee92919061032a565b50506001600282604051610302919061055b565b908152602001604051809103902060006101000a81548160ff02191690831515021790555050565b828054600181600116156101000203166002900490600052602060002090601f016020900481019282601f1061036b57805160ff1916838001178555610399565b82800160010185558215610399579182015b8281111561039857825182559160200191906001019061037d565b5b5090506103a691906103aa565b5090565b6103cc91905b808211156103c85760008160009055506001016103b0565b5090565b90565b600082601f8301126103e057600080fd5b81356103f36103ee826105fc565b6105cf565b9150808252602083016020830185838301111561040f57600080fd5b61041a838284610664565b50505092915050565b600081359050610432816106b7565b92915050565b60006020828403121561044a57600080fd5b600082013567ffffffffffffffff81111561046457600080fd5b610470848285016103cf565b91505092915050565b60006020828403121561048b57600080fd5b600061049984828501610423565b91505092915050565b60006104ad82610633565b6104b7818561064f565b93506104c7818560208601610673565b80840191505092915050565b60006104de82610628565b6104e8818561063e565b93506104f8818560208601610673565b610501816106a6565b840191505092915050565b6000610519600e8361063e565b91507f666f6f64207761732061646465640000000000000000000000000000000000006000830152602082019050919050565b6105558161065a565b82525050565b600061056782846104a2565b915081905092915050565b6000602082019050818103600083015261058c81846104d3565b905092915050565b600060208201905081810360008301526105ad8161050c565b9050919050565b60006020820190506105c9600083018461054c565b92915050565b6000604051905081810181811067ffffffffffffffff821117156105f257600080fd5b8060405250919050565b600067ffffffffffffffff82111561061357600080fd5b601f19601f8301169050602081019050919050565b600081519050919050565b600081519050919050565b600082825260208201905092915050565b600081905092915050565b6000819050919050565b82818337600083830152505050565b60005b83811015610691578082015181840152602081019050610676565b838111156106a0576000848401525b50505050565b6000601f19601f8301169050919050565b6106c08161065a565b81146106cb57600080fd5b5056fea365627a7a72315820b02020e25ba25ddede1ed575de355d6af37e85689b1661fcf38b224988e6ecd16c6578706572696d656e74616cf564736f6c63430005100040",
  "source": "pragma solidity ^0.5.16;\npragma experimental ABIEncoderV2;\n\ncontract MyLunch {\n    string[] public foodList;\n    mapping(string => uint256) private foodVoted;\n    mapping(string => bool) private wasAdded;\n\n    constructor(string[] memory initialFoodNameList) public {\n        //initial food list\n        foodList = initialFoodNameList;\n\n        //initial food was added\n        for (uint256 i = 0; i < initialFoodNameList.length; i++) {\n            wasAdded[initialFoodNameList[i]] = true;\n        }\n    }\n\n    function getFoodCount() public view returns (uint256) {\n        return foodList.length;\n    }\n\n    function getVotedFoodByName(string memory foodName)\n        public\n        view\n        returns (uint256)\n    {\n        return foodVoted[foodName];\n    }\n\n    function voteFoodByName(string memory foodName) public {\n        foodVoted[foodName] = foodVoted[foodName] + 1;\n    }\n\n    function addFood(string memory foodName) public {\n        require(!wasAdded[foodName], \"food was added\");\n        foodList.push(foodName);\n        wasAdded[foodName] = true;\n    }\n}\n",
  "sourcePath": "/Users/s91790/Documents/LearnSolidity/voteLunchBlockchainApp/vote-lunch-contract/contracts/MyLunch.sol",
  "compiler": {
    "name": "solc",
    "version": "0.5.16+commit.9c3226ce.Emscripten.clang"
  },
  "schemaVersion": "3.4.3",
  "updatedAt": "2021-09-19T17:49:41.808Z",
  "networkType": "ethereum",
  "devdoc": {
    "methods": {}
  },
  "userdoc": {
    "methods": {}
  }
}