{
  "contractName": "MyLunch",
  "abi": [
    {
      "inputs": [
        {
          "internalType": "string[]",
          "name": "initialFoodNameList",
          "type": "string[]"
        }
      ],
      "payable": false,
      "stateMutability": "nonpayable",
      "type": "constructor"
    },
    {
      "constant": true,
      "inputs": [
        {
          "internalType": "uint256",
          "name": "",
          "type": "uint256"
        }
      ],
      "name": "foodNameList",
      "outputs": [
        {
          "internalType": "string",
          "name": "",
          "type": "string"
        }
      ],
      "payable": false,
      "stateMutability": "view",
      "type": "function"
    },
    {
      "constant": true,
      "inputs": [],
      "name": "getFoodNameListCount",
      "outputs": [
        {
          "internalType": "uint256",
          "name": "",
          "type": "uint256"
        }
      ],
      "payable": false,
      "stateMutability": "view",
      "type": "function"
    },
    {
      "constant": true,
      "inputs": [
        {
          "internalType": "string",
          "name": "foodName",
          "type": "string"
        }
      ],
      "name": "getVoteFoodCount",
      "outputs": [
        {
          "internalType": "uint256",
          "name": "",
          "type": "uint256"
        }
      ],
      "payable": false,
      "stateMutability": "view",
      "type": "function"
    },
    {
      "constant": false,
      "inputs": [
        {
          "internalType": "string",
          "name": "foodName",
          "type": "string"
        }
      ],
      "name": "voteFoodByName",
      "outputs": [],
      "payable": false,
      "stateMutability": "nonpayable",
      "type": "function"
    }
  ],
  "bytecode": "0x60806040523480156200001157600080fd5b50604051620008d2380380620008d28339818101604052620000379190810190620002c3565b80600090805190602001906200004f92919062000057565b5050620003c2565b828054828255906000526020600020908101928215620000ab579160200282015b82811115620000aa57825182908051906020019062000099929190620000be565b509160200191906001019062000078565b5b509050620000ba919062000145565b5090565b828054600181600116156101000203166002900490600052602060002090601f016020900481019282601f106200010157805160ff191683800117855562000132565b8280016001018555821562000132579182015b828111156200013157825182559160200191906001019062000114565b5b50905062000141919062000176565b5090565b6200017391905b808211156200016f57600081816200016591906200019e565b506001016200014c565b5090565b90565b6200019b91905b80821115620001975760008160009055506001016200017d565b5090565b90565b50805460018160011615610100020316600290046000825580601f10620001c65750620001e7565b601f016020900490600052602060002090810190620001e6919062000176565b5b50565b600082601f830112620001fc57600080fd5b8151620002136200020d8262000336565b62000308565b9150818183526020840193506020810190508360005b838110156200025d578151860162000242888262000267565b84526020840193506020830192505060018101905062000229565b5050505092915050565b600082601f8301126200027957600080fd5b8151620002906200028a826200035f565b62000308565b91508082526020830160208301858383011115620002ad57600080fd5b620002ba8382846200038c565b50505092915050565b600060208284031215620002d657600080fd5b600082015167ffffffffffffffff811115620002f157600080fd5b620002ff84828501620001ea565b91505092915050565b6000604051905081810181811067ffffffffffffffff821117156200032c57600080fd5b8060405250919050565b600067ffffffffffffffff8211156200034e57600080fd5b602082029050602081019050919050565b600067ffffffffffffffff8211156200037757600080fd5b601f19601f8301169050602081019050919050565b60005b83811015620003ac5780820151818401526020810190506200038f565b83811115620003bc576000848401525b50505050565b61050080620003d26000396000f3fe608060405234801561001057600080fd5b506004361061004c5760003560e01c80630c53fa32146100515780631e47dcb01461006f5780633e3f8a761461008b578063b3ff1c60146100bb575b600080fd5b6100596100eb565b60405161006691906103a3565b60405180910390f35b61008960048036036100849190810190610287565b6100f7565b005b6100a560048036036100a091908101906102c8565b61013d565b6040516100b29190610381565b60405180910390f35b6100d560048036036100d09190810190610287565b6101f6565b6040516100e291906103a3565b60405180910390f35b60008080549050905090565b60018082604051610108919061036a565b90815260200160405180910390205401600182604051610128919061036a565b90815260200160405180910390208190555050565b6000818154811061014a57fe5b906000526020600020016000915090508054600181600116156101000203166002900480601f0160208091040260200160405190810160405280929190818152602001828054600181600116156101000203166002900480156101ee5780601f106101c3576101008083540402835291602001916101ee565b820191906000526020600020905b8154815290600101906020018083116101d157829003601f168201915b505050505081565b6000600182604051610208919061036a565b9081526020016040518091039020549050919050565b600082601f83011261022f57600080fd5b813561024261023d826103eb565b6103be565b9150808252602083016020830185838301111561025e57600080fd5b610269838284610453565b50505092915050565b600081359050610281816104a6565b92915050565b60006020828403121561029957600080fd5b600082013567ffffffffffffffff8111156102b357600080fd5b6102bf8482850161021e565b91505092915050565b6000602082840312156102da57600080fd5b60006102e884828501610272565b91505092915050565b60006102fc82610422565b610306818561043e565b9350610316818560208601610462565b80840191505092915050565b600061032d82610417565b610337818561042d565b9350610347818560208601610462565b61035081610495565b840191505092915050565b61036481610449565b82525050565b600061037682846102f1565b915081905092915050565b6000602082019050818103600083015261039b8184610322565b905092915050565b60006020820190506103b8600083018461035b565b92915050565b6000604051905081810181811067ffffffffffffffff821117156103e157600080fd5b8060405250919050565b600067ffffffffffffffff82111561040257600080fd5b601f19601f8301169050602081019050919050565b600081519050919050565b600081519050919050565b600082825260208201905092915050565b600081905092915050565b6000819050919050565b82818337600083830152505050565b60005b83811015610480578082015181840152602081019050610465565b8381111561048f576000848401525b50505050565b6000601f19601f8301169050919050565b6104af81610449565b81146104ba57600080fd5b5056fea365627a7a723158201bf78eabd5bd77ac57eb325388ade82515f1c69d351feaec2d311bce4de7ec626c6578706572696d656e74616cf564736f6c63430005100040",
  "source": "pragma solidity ^0.5.16;\npragma experimental ABIEncoderV2;\n\ncontract MyLunch {\n    string[] public foodNameList;\n    mapping(string => uint256) foodCount;\n\n    constructor(string[] memory initialFoodNameList) public {\n        foodNameList = initialFoodNameList;\n    }\n\n    function getFoodNameListCount() public view returns (uint256) {\n        return foodNameList.length;\n    }\n\n    function getVoteFoodCount(string memory foodName)\n        public\n        view\n        returns (uint256)\n    {\n        return foodCount[foodName];\n    }\n\n    function voteFoodByName(string memory foodName) public {\n        foodCount[foodName] = foodCount[foodName] + 1;\n    }\n}\n",
  "sourcePath": "/Users/s91790/Documents/LearnSolidity/voteLunchBlockchainApp/vote-lunch-contract/contracts/MyLunch.sol",
  "compiler": {
    "name": "solc",
    "version": "0.5.16+commit.9c3226ce.Emscripten.clang"
  },
  "schemaVersion": "3.4.3",
  "updatedAt": "2021-09-09T12:37:39.512Z",
  "networkType": "ethereum",
  "devdoc": {
    "methods": {}
  },
  "userdoc": {
    "methods": {}
  }
}